:020000040800F2
:10000000A008002499030008392A0008292A0008BA
:10001000312A000891050008C935000800000000D9
:10002000000000000000000000000000992C000803
:100030009905000800000000412A0008A12C0008D2
:10004000B3030008B3030008B3030008B3030008B8
:10005000B3030008B3030008B3030008B3030008A8
:10006000B3030008B3030008B3030008B303000898
:10007000B3030008B3030008B3030008B303000888
:10008000B3030008B3030008B3030008B303000878
:10009000B3030008B3030008B3030008B303000868
:1000A000B3030008B3030008B3030008B303000858
:1000B000B3030008B3030008B3030008B303000848
:1000C000B3030008B3030008B3030008B303000838
:1000D000B3030008B3030008B3030008B303000828
:1000E000B3030008B303000800000000B3030008D6
:1000F000B3030008B3030008B3030008B303000808
:10010000B3030008B3030008B3030008B3030008F7
:10011000B3030008B3030008B3030008B3030008E7
:10012000B3030008B3030008B3030008B3030008D7
:10013000B3030008B3030008B3030008B3030008C7
:1001400000000000000000000000000000000000AF
:10015000B3030008B3030008B3030008B3030008A7
:10016000B3030008B3030008B3030008B303000897
:10017000B3030008B3030008B30300080000000045
:10018000B3030008B3030008B3030008B303000877
:10019000B3030008B3030008B3030008B303000867
:1001A000B3030008B3030008B30300080000000015
:1001B000B3030008B3030008B3030008B303000847
:1001C000B3030008B30300080000000000000000B3
:1001D0000000000000000000B30300080000000061
:1001E000000000000000000000000000000000000F
:1001F0000000000000000000B3030008B303000883
:10020000B3030008B303000800000000B3030008B4
:10021000B3030008B3030008B3030008B3030008E6
:10022000B303000800000000B30300080000000052
:10023000B3030008B303000800000000B303000884
:10024000B3030008B3030008B3030008B3030008B6
:10025000B3030008B3030008B3030008B3030008A6
:10026000B3030008B3030008B3030008B303000896
:10027000B3030008B3030008B30300080000000044
:10028000B3030008B3030008B3030008B303000876
:1002900000000000B3030008B303000800000000E2
:1002A00000000000B3030008B3030008B303000814
:1002B000B3030008B3030008B3030008B303000846
:1002C000B3030008B3030008B303000800F002F80A
:1002D00000F052F814A696E8000CB244B344DA4594
:1002E00001D100F049F8BAE80F000FA696E83000F7
:1002F000A5EB040504EB0607AAEB0704A7F1010729
:100300004FEA15154FEA3414A4F10104AC4201D3AD
:1003100000F032F813F0010F18BFFB1A43F001038D
:1003200000F001F8DBE71847C4350000E4350000B1
:10033000103A24BF78C878C1FAD8520724BF30C811
:1003400030C144BF04680C60704700007047000073
:100350000023002400250026103A28BF78C1FBD8CE
:10036000520728BF30C148BF0B6070471FB503F06C
:100370008DFA1FBD10B510BD00F0D0F81146FFF783
:10038000F5FF03F025F900F0EEF803B4FFF7F2FFF4
:1003900003BC00F0F5F80000094880470948004711
:1003A000FEE7FEE7FEE7FEE7FEE7FEE7FEE7FEE725
:1003B000FEE7FEE704480549054A064B7047000082
:1003C000792D0008CD020008A0020024A008002416
:1003D000A0040024A004002453EA020C00F0698069
:1003E0002DE9F04B4FF00006002B1FBFB3FA83F549
:1003F00003FA05F424FA05F65E4012BF1643B2FA7A
:1004000082F502FA05F4C5F120051EBF22FA05FCAB
:1004100044EA0C04203556EA044C4FEA144418BF51
:10042000641C4FF000084FF00009904271EB030C80
:1004300039D3002919BFB1FA81F701FA07F6B0FAEA
:1004400080F700FA07F6C7F120071EBF20FA07FC65
:1004500046EA0C062037B6FBF4FCA7EB0507103F75
:1004600007F01F0BCBF120062CFA06F60CFA0BFB5B
:1004700044BFB3460026202FA4BF5E464FF0000BBA
:100480005BEA060C08BF4FF0010B19EB0B0948EBB8
:100490000608ABFB027C06FB02CC0BFB03CCC01BAB
:1004A00071EB0C01C1E70B46024641464846BDE8E8
:1004B000F08B13B5084318BF4FF0FF300146AFF380
:1004C0000080BDE81C4070474FF0000200B51346A5
:1004D00094469646203922BFA0E80C50A0E80C5064
:1004E000B1F12001BFF4F7AF090728BFA0E80C5015
:1004F00048BF0CC05DF804EB890028BF40F8042B0E
:1005000008BF704748BF20F8022B11F0804F18BF7A
:1005100000F8012B7047704770477047754600F030
:100520002BF8AE4605006946534620F00700854685
:1005300018B020B5FFF73EFFBDE820404FF00006A1
:100540004FF000074FF000084FF0000BAC46ACE84E
:10055000C009ACE8C009ACE8C009ACE8C00921F0AA
:1005600007018D46704710B50446AFF30080204662
:10057000BDE81040FFF709BF00487047D0000024D5
:1005800001491820ABBEFEE72600020070470000BC
:10059000FEE70000000000007047000000000000BF
:1005A00010B50B79D1F808C00A6891F80CE042EA5E
:1005B0000C0291F80DC042EAC3628B7B42EACE5234
:1005C00091F80FE042EA8C5291F810C042EA43528F
:1005D0004B7C42EA0E52BCF1000F08BF42F40022ED
:1005E000002B08BF42F4003291F812C00C7FD1E911
:1005F000053E1A438B7F42EA0C4291F81DC042EA45
:100600000E0291F81FE042EA0432002B42EACC22AB
:1006100008BF42F4806291F820304C6A42EA4E22D0
:1006200000682243002B91F828C008BF42F4807272
:10063000CC6A0368224348F28304C0F2040442EA0D
:100640000C1223401A43026091F83820D1F83CC0C4
:1006500091F83040120691F8313042EA4C6242EA99
:10066000844291F8324042EA43424B6B1A4348F2CB
:100670000003D0F804C0002CCCF2F80308BF42F409
:10068000803203EA0C0340F20F1C1A43426091F8D7
:1006900040204B6CC46843EA022224EA0C031A434C
:1006A000C26091F854200B6D91F84C404FF60D7CD0
:1006B00043EA4202002C08BF42F080028B6C046FB8
:1006C00042EA034204EA0C031A43026791F85520F8
:1006D00091F85630D0F8904043EA420224F00303E8
:1006E0001A43C0F89020D0F8002D8B6D22F07202D2
:1006F0001A43C0F8002D91F86020CB6D002A91F8C4
:10070000612008BF43F0400391F8621043EA0212EF
:10071000D0F8303D42EAC10123F07B021143C0F81A
:10072000301D10BD00000000EFF3108072B600BF56
:10073000FEE7000000000000B0B5044600F004FB36
:1007400040F2C0010546C2F20041621C097818BFA0
:100750000C4400BF00F0F8FA401BA042FAD3B0BD31
:10076000D0B3F0B599B00446C06E10B9204600F081
:1007700077F92320E06644F2F440C5F602000168F0
:1007800041F002010160006800F002000090009852
:10079000207A002818BF0120C00501F089FF2068D9
:1007A0004FF48056815941F00101815100F0CCFA9B
:1007B000054600BF20688159C9070FD000F0C4FA70
:1007C000401BB0F5FA7FF5D904206067E020E066B1
:1007D000012019B0F0BD00BF01207047D0F8000221
:1007E00020F4706501F0D8FB4DF200314EF2BF12DB
:1007F000CFF6CE61C0F2E4020144914202D845F442
:10080000007529E04FF2401147F63F02CFF6E9515B
:10081000C0F27D120144914202D845F440751BE0BC
:1008200047F6001145F60022CFF66C41C0F2622275
:100830000144914210D341F60071CFF60A210844D9
:100840004FF27F01C0F2FA21884203D845F4807547
:1008500002E000BF45F480652068C0F8005201F056
:100860009BFB4DF683614FF0FF32C4F21B31002534
:10087000A0FB01012068022702EB9141C0F8DC10C7
:1008800001208DF804008DF8320040F20111ADF81E
:100890000E104FF400518DF8600006914FF4C361C3
:1008A0000D912021ADF811008DF81E0017914FF029
:1008B00040518DF8200000914FF480410591694628
:1008C0008DF810008DF84C00204609958DF81F50CA
:1008D0008DF828508DF838500F95ADF861508DF88F
:1008E0000C500295ADF81C50149512950B958DF88F
:1008F00040508DF856508DF80D501697ADF8545065
:10090000ADF830501195FFF74BFE20684FF4805240
:1009100000F5805147F602068358B34383504A6876
:100920004DF201039A4341F201031A434A604CF22B
:100930000003D1F80021CFF6FE731A404EF6EF7394
:1009400002F50672C1F80021D1F80421CFF6C07378
:100950001A404FF6FF7302F50012C1F80421D1F8D6
:100960000821C7F6C0731A4002F50012C1F8082129
:10097000D1F8002167F39442C1F80021626993071E
:1009800006D001206067E021E16619B0F0BD00BF2C
:10099000D1F8083147F6FE77BB4343EA4202C1F87B
:1009A0000821E3681A461D605D609D60DD60A361FB
:1009B00042F8185FDD611D625D62E2611A4642F82D
:1009C000305F5D639D63DD6322621A4642F8485FD3
:1009D000DD641D655D65C4E909250322C1F82C218C
:1009E000C1F81431C1F8203123691F461D605D60D4
:1009F0009D60DD60C3E90455636447F8185FDD61FD
:100A00001D625D62C3E90A55A7641F4647F8305F5F
:100A10005D639D63DD63C3E91055E7641F4647F8D6
:100A2000485FDD641D655D65C3E91655C4E9185569
:100A3000C4E91655C4E91475C1F83021C1F81C3158
:100A4000C1F8287161688A88C0F800230968C0F875
:100A5000041365671020E0662067002019B0F0BD20
:100A60002DE9F04186B048F200010068C4F20201AD
:100A7000002688420596CDE903660296019603D0CA
:100A800006B0BDE8F08100BF44F2E0400024C5F6A6
:100A90000200C5F6020401AD4FF0020850F8081C30
:100AA0000B2741F4004140F8081C50F8081C01F4E1
:100AB00000410091009950F8081C41F4803140F841
:100AC000081C50F8081C01F480310091009950F87E
:100AD000081C41F4003140F8081C50F8081C01F4CF
:100AE000003100910099016841F004010160016842
:100AF00001F0040100910099016841F001010160D9
:100B0000016801F0010100910099016841F00201C2
:100B10000160016801F0020100910099016841F053
:100B2000400101600068294600F0400000900098F4
:100B30003220019004F50060CDE902860496059705
:100B400000F026F886202946CDE9010820460597C1
:100B5000CDE9036600F01CF84FF400502946CDE9BA
:100B6000010804F580600597CDE9036600F010F8F0
:100B70004FF420502946CDE9010804F5C0500597EF
:100B8000CDE9036600F004F806B0BDE8F08100008E
:100B90002DE9F04F83B00F68002F00F0C98000F1FD
:100BA000264642F2004506F1FF76C5F602050A2206
:100BB000A8424FEAB62540F2040C08BF092200F112
:100BC00020030093082DC5F6000C38BF4FEAB6226B
:100BD000002400264FF0000801920AE008F1010805
:100BE0000F6837FA08F206F1020604F1040400F077
:100BF0009F80012202FA08FE17EA0E09EED0D1F812
:100C000004B003220BF00307B2407D1E6FEA020A14
:100C1000012D11D88268CD6802EA0A02B5402A4344
:100C20008260CBF30015426822EA0E0205FA08F54D
:100C30002A43426004E000BF032F01D103271FE0D5
:100C4000C2688D6802EA0A02B540022F42EA050234
:100C5000C26015D16FF0030204F01C0502EA580BC4
:100C6000009A0F2352F80BE0AB400F692EEA030302
:100C7000AF403B4342F80B30D1F804B00BF0030710
:100C8000026807FA06F302EA0A021BF4403F42EA4E
:100C900003020260A2D044F2F44340F2084EC5F6CB
:100CA0000203C5F6000E0F251A6842F002021A6010
:100CB0001A6802F00202029228F00302029B04F07A
:100CC0000C0352F80E709D40AF43019D05FA03F3EB
:100CD0003B4342F80E304FF0B04EDEF800204B6838
:100CE00042EA0907DD0258BF22EA09079D02CEF851
:100CF0000070DCF8002042EA090758BF22EA090721
:100D00009D03CCF80070DCF8802042EA090758BF48
:100D100022EA0907DB03CCF88070DCF87C2042EA89
:100D2000090758BF22EA0907CCF87C7056E700BFD4
:100D300003B0BDE8F08F0000002A08BF09048161FC
:100D4000704700000000000040F29820C2F200400E
:100D5000006870470000000040F2C00040F2982197
:100D6000C2F20040C2F2004100780A6810440860F4
:100D7000704700000000000080B5032000F098F8E4
:100D800001F092F944F2184143F6B203C5F60201AC
:100D9000C0F600030A68C2F303229A5C096801F0F6
:100DA0000F0102F01F02595CD04040F2CC02C2F2A7
:100DB000004201F01F0120FA01F1116040F2C80168
:100DC000C2F200410860002000F00AF800281CBFB1
:100DD000012080BD00F02CF8002080BD0000000044
:100DE000B0B540F2C005C2F200452978F1B1044621
:100DF00040F2C800C2F200404FF47A72B2FBF1F147
:100E00000068B0FBF1F001F05FFC0F2C01464FF0E1
:100E100001000AD8002918BFB0BD4FF0FF300022F2
:100E2000214600F015F800206C60B0BD0120B0BD77
:100E300081B044F2F440C5F60200016841F00201BD
:100E40000160006800F002000090009801B0704757
:100E500070B54EF60C5C4FF0FF36CEF2000C00F190
:100E6000604505F56445DCF80030C3F3022E8EF0D2
:100E70000703042B28BF0423BEF1030406FA03F37F
:100E800021EA030100F00F0338BF0024043B0028CF
:100E9000634406FA04F048BF03F10C05A14022EABE
:100EA000000008430001287070BD00000000000031
:100EB0004EF60C514FF6FF03CEF200010A681A40BD
:100EC00060F30A2242F0806040F0FD7008607047D5
:100ED000B0B544F60C05C5F602052968490729682E
:100EE00006D401F00701081A18BF0120B0BD00BFE9
:100EF00021F0070108432860FFF726FF044600BFE2
:100F000055F8080C800407D4FFF71EFF001BB0F54E
:100F10007A7FF5D90120B0BD0020B0BD00000000EF
:100F200080B501F039F844F2204143F6B202C5F62B
:100F30000201C0F600020968C1F30211515C01F020
:100F40001F01C84080BD000080B544F2384EC5F690
:100F5000020E5EF8103C5EF8101C5EF80C2CC1F31B
:100F6000053CDEF80410BCF1000F19D0C9089FED54
:100F70003C1AD20601EAE27103F003026FF35F311B
:100F800000EE101AB8EE400ADFE802F0022210224A
:100F90005EF8381C89060DD49FED331A18E000BFA7
:100FA00000218160C0E9001180BD00BF9FED2D1AB6
:100FB0000EE000BF5EF8381C49F20002C0F2D032E9
:100FC000C1F3C10122FA01F101EE101AB8EE411A83
:100FD000DEF800109FED253A6FF35F2102EE101A44
:100FE000DEF80010C1F34621B8EE422A013100EECE
:100FF000032A00EE10CAB7EE003AB8EE400A81EEBE
:10100000000A32EE031A20EE010A01EE101AB8EEC1
:10101000411A80EE011ABCEEC11A80ED001ADEF80A
:101020000010C1F30641013101EE101AB8EE411A69
:1010300080EE011ABCEEC11A80ED011ADEF8001034
:10104000C1F30661013101EE101AB8EE411A80EECB
:10105000010ABCEEC00A10EE101A816080BD00BF0C
:101060000024744A0024F44A0024744C000000391F
:1010700080B544F2404EC5F6020E5EF8183C5EF8AC
:10108000181C5EF8142CC1F3055CDEF80410BCF1EA
:10109000000F19D0C9089FED3C1AD20501EAE27190
:1010A00003F003026FF35F3100EE101AB8EE400A4E
:1010B000DFE802F0022210225EF8401C89060DD4FF
:1010C0009FED331A18E000BF00218160C0E90011D4
:1010D00080BD00BF9FED2D1A0EE000BF5EF8401CE2
:1010E00049F20002C0F2D032C1F3C10122FA01F18B
:1010F00001EE101AB8EE411ADEF800109FED253A05
:101100006FF35F2102EE101ADEF80010C1F34621E2
:10111000B8EE422A013100EE032A00EE10CAB7EE03
:10112000003AB8EE400A81EE000A32EE031A20EED1
:10113000010A01EE101AB8EE411A80EE011ABCEE57
:10114000C11A80ED001ADEF80010C1F3064101312A
:1011500001EE101AB8EE411A80EE011ABCEEC11A67
:1011600080ED011ADEF80010C1F30661013101EED5
:10117000101AB8EE411A80EE010ABCEEC00A10EE59
:10118000101A816080BD00BF0024744A0024F44A14
:101190000024744C000000392DE9F0470446C07863
:1011A00044F22C480007C5F602082DD5206E4FEA00
:1011B0003051032946D8DFE801F0030B172000BFA8
:1011C000D8F8001041F40031C8F8001015E000BF55
:1011D000201D022101F038FC064668B16078C00786
:1011E00016D135465BE000BF04F12400022101F076
:1011F000BFFC06460028F1D1206ED8F8241021F457
:1012000040110843C8F8240000266078C007E8D0E1
:10121000606D042800F2AA803546DFE800F0232F35
:10122000190303002F468DB3607840073BD43E4638
:101230006078000751D43746E078800740F1EA80B3
:1012400064E000BF01266078C007CAD0E0E700BFB5
:1012500004F12400002101F08BFC0546002D2F46EF
:10126000E2D113E0D8F80000354640F40030C8F869
:101270000000002D2F46D7D108E000BF201D00211F
:1012800001F0E2FB0546002D2F46CDD1D8F8240011
:10129000616D20F0070000250843C8F82400374698
:1012A00060784007C3D5D4F8A0004FEA70500528F5
:1012B00000F27080DFE800F0047C620A0A0A00BFD6
:1012C000D8F8000040F40030C8F80000002D2E4689
:1012D00000F0778060780007ADD5D4F8A4004FEA1D
:1012E000306005285ED8DFE800F0037D4F0909096A
:1012F000D8F8000040F40030C8F80000002D2F4658
:1013000000F07980E078800740F18480A06C4FEA9B
:101310003010032822D8DFE800F0030F190300BFC4
:101320002E46EDB9D8F82000A16C20F03000002541
:101330000843C8F820006DE0D8F8000040F4003001
:10134000C8F800002E465DB9ECE700BF201D022161
:1013500001F07AFB05462E4615B9E3E70125012683
:101360006078C00640F19B8058E000BF012501274E
:10137000607840073FF597AF59E700BF04F12400BC
:10138000002101F0F5FB17E004F12400002101F039
:10139000EFFB2BE001250126607800073FF59DAFAC
:1013A00049E700BF01250127E0788007AED431E08E
:1013B000201D002101F048FB0546002D2E467FF43C
:1013C00089AFD8F82C00D4F8A01020F460000025D4
:1013D0000843C8F82C003E46607800077FF52BAF25
:1013E0007BE700BF201D002101F02EFB0546002DEC
:1013F0002F467FF487AFD8F82C00D4F8A41020F043
:10140000E06000250843C8F82C003746E0788007E4
:101410003FF57CAF3E466078C00640D5A06D4FEAF0
:101420003030042800F29280DFE800F01E28140417
:10143000040000BF2F464DB36078800633D43E468B
:101440006078400641D437466078000640F1D88085
:101450004EE000BF04F12400002101F089FB0546A5
:10146000002D2F46E8D111E0D8F8000040F40030FC
:10147000C8F80000002D2F46DED107E0201D002116
:1014800001F0E2FA0546002D2F46D5D1D8F8240008
:10149000A16D20F4E04000250843C8F82400374639
:1014A00060788006CBD5E06D4FEA3040052800F229
:1014B0006980DFE800F0037553030303002D2E4617
:1014C00000F0778060784006BDD5D4F8A8004FEAD8
:1014D000307005285ED8DFE800F0037B4B03030380
:1014E000002D2F4600F07D806078000640F1888056
:1014F000A06E58B1B0F1005F10D0B0F1805F1FD185
:10150000D8F8000040F40030C8F800002E466DB155
:10151000E078C00700F08B8076E000BF201D01213D
:1015200001F092FA0546002D2E46F1D1D8F824009C
:10153000A16E20F0405000250843C8F824005FE069
:1015400001250126E078C0075ED170E00125012762
:10155000607880063FF5A7AF71E700BF04F1240073
:10156000012101F005FB0546002D2E46AAD120E001
:1015700004F12400012101F0FBFA0546002D2F465D
:10158000B2D12EE001250126607840063FF59DAFDF
:1015900059E700BF0125012760780006A8D42FE095
:1015A000201D012101F050FA0546002D2E467FF442
:1015B00089AFD8F82400E16D20F4E020002508432D
:1015C000C8F824003E46607840067FF53CAF7CE7D3
:1015D000201D012101F038FA0546002D2F467FF429
:1015E00083AFD8F82C00D4F8A81020F0E0400025F4
:1015F0000843C8F82C003746607800063FF578AFFE
:101600003E46E078C00712D0606C032800F2AA8042
:10161000DFE800F002929E02A9464DB9D8F82000FA
:10162000616C20F0030000250843C8F82000B14693
:10163000A078400602D44F461AE000BFD8F8D40381
:1016400040F48070C8F8D403FFF77EFB064600BF65
:10165000D8F8D403C00507D4FFF776FB801B6428B5
:10166000F6D90325032703E0002D2F4600F07E80E6
:101670002078C00700F0D080606F4FEAF0000528A6
:1016800000F2B280DFE800F004B6A404040400BF56
:10169000002D2E4600F0B7802078800700F1C18031
:1016A00037462078400700F1D1803E4620788006FA
:1016B00000F1E28037462078400600F1F5803E4692
:1016C0002078000600F1088137462068010740F1C4
:1016D0001B81E06FB0F5805F08D104F12400022186
:1016E00001F046FA002818BF0127E06FD8F828104B
:1016F00021F440510843C8F828002068C10640F191
:101700000681D4F89000B0F5807F09D104F124005F
:10171000022101F02DFA002818BF0127D4F890000B
:10172000D8F82C1021F440710843C8F82C00206828
:10173000000340F11381ECE0D8F8000040F40030E1
:10174000C8F80000002DA9467FF472AF66E700BF1D
:10175000201D022101F078F90546002DA9467FF4ED
:1017600067AF5BE701254FF0010961E7D8F8441046
:10177000D4F8AC00414011F4407F11D0D8F84410A7
:10178000D8F8442042F48032C8F84420D8F84420E5
:1017900021F4407122F48032C8F84420C8F8441083
:1017A000B0F5807F40F0A682FFF7CEFA064641F200
:1017B000883A0325032700BFD8F84400800700F1CA
:1017C0009782FFF7C1FA801B5045F5D950E700BF5B
:1017D00004F12400012101F0CBF90546002D2E462D
:1017E0007FF45AAF0FE000BF012501262078800763
:1017F00017D455E7201D012101F026F90546002DDB
:101800002E467FF449AFD8F82800616F20F03800E9
:1018100000250843C8F828003E46207880077FF559
:101820003FAF206F052800F2BB81DFE810F0070012
:10183000E1017D0107000700070000BF002D2F46D2
:1018400000F0DF81207840077FF52FAFD4F88C00BF
:10185000052800F2AD81DFE810F00700E301730115
:1018600007000700070000BF002D2E4600F0E181B1
:10187000207880067FF51EAFD4F888004FEA3070DC
:10188000052800F29D81DFE810F00700E5016701FF
:1018900007000700070000BF002D2F4600F0E3817E
:1018A000207840067FF50BAFD4F894004FEAB020C3
:1018B000052800F28D81DFE810F00700E7015B01E9
:1018C00007000700070000BF002D2E4600F0E5814D
:1018D000207800067FF5F8AED4F898004FEA703013
:1018E000052800F27D81DFE810F00700E9014F01D3
:1018F00007000700070000BF002D2F4600F0E7811A
:10190000206801073FF5E5AEC1063FF5FAAE0003DA
:1019100024D5D4F89C00B0F5003F0FD0B0F5803F3F
:1019200006D000284AD1201D002101F08DF804E0E6
:1019300004F12400022101F01BF905462E461DB1D9
:10194000A07840073FD50DE0D8F82C00D4F89C10C3
:1019500020F4403000250843C8F82C003E46A0780B
:10196000400730D5D4F88000B0F5401F0BD0B0F55B
:10197000001F0FD0B0F5801F6ED1D8F8000040F4E2
:101980000030C8F800002F466DB1A078C0071ED106
:1019900067E000BF04F12400012101F0E9F80546E9
:1019A000002D2F46F1D1D8F82800D4F8801020F46B
:1019B000401000250843C8F8280004E0012501264E
:1019C000A0784007CED43746A078C00749D0E06C55
:1019D000B0F5803F28D0C8BBD8F8000040F40030F4
:1019E000C8F800002E463DB3206881003DD4810335
:1019F00046D4C1025AD4810262D441006AD4B0F103
:101A0000FF3F78DD000208D5D8F82800D4F884100C
:101A100020F440000843C8F82800002E18BF012613
:101A20003046BDE8F08700BF201D022101F00CF810
:101A30000546002D2E46D7D1D8F82000E16C20F4C1
:101A4000803000250843C8F820000AE0012501265F
:101A500020688100CBD508E001250127A078C007C8
:101A6000B5D13E4620688100C1D504F12400022191
:101A700001F07EF8002818BF012620688103B8D540
:101A8000A16F6FF0010202EB3122022A0AD34FEA62
:101A900031223AB1012A06D1D8F8002042F40032AE
:101AA000C8F80020A5B30126C102A4D5D8F8241097
:101AB000E26E21F000411143C8F8241081029CD548
:101AC000D8F82410626E21F080711143C8F82410F8
:101AD000410094D558F81C1C21F4004148F81C1C06
:101AE000D4F8B01058F81C2C114348F81C1CB0F165
:101AF000FF3F3FF787AFD8F82010226D21F040510B
:101B00001143C8F8201000023FF57EAF85E700BF03
:101B1000D8F8282022F440721143C8F82810C102D6
:101B20007FF569AFC2E700BF04F12400012101F095
:101B30001FF80546002D2F467FF484AE61E000BFFC
:101B400004F12400012101F013F80546002D2E4672
:101B50007FF48EAE6DE000BF04F12400022101F09D
:101B600007F80546002D2F467FF49AAE7BE000BFB4
:101B700004F12400022100F0FBFF0546002D2E4653
:101B80007FF4A6AE89E000BF04F12400022100F03A
:101B9000EFFF0546002D2F467FF4B2AE97E000BF61
:101BA00001250127207840073FF550AE7DE500BFB5
:101BB00001250126207880063FF55EAE7AE500BF5C
:101BC00001250127207840063FF56EAE77E500BF7E
:101BD00001250126207800063FF57EAE74E500BFA2
:101BE00001250127206801077FF58EAE71E500BF52
:101BF000201D012100F028FF0546002D2F467FF40F
:101C000021AED8F82800216F20F0070000250843F6
:101C1000C8F828003746207840077FF546AD15E61E
:101C2000201D012100F010FF0546002D2E467FF4F7
:101C30001FAED8F82C00D4F88C1020F00700002537
:101C40000843C8F82C003E46207880067FF532AD68
:101C500012E600BF201D002100F0F6FE0546002D13
:101C60002F467FF41DAED8F82800D4F8881020F055
:101C7000E04000250843C8F8280037462078400691
:101C80007FF51DAD10E600BF201D002100F0DCFE39
:101C90000546002D2E467FF41BAED8F82C00D4F854
:101CA000941020F4E05000250843C8F82C003E466C
:101CB000207800067FF508AD0EE600BF201D00214C
:101CC00000F0C2FE0546002D2F467FF419AED8F86D
:101CD0002C00D4F8981020F4604000250843C8F880
:101CE0002C003746206801077FF50EAEF1E400BFF7
:101CF000D4F8AC004FF6CF7358F81C2CC0F2FF0399
:101D000000F4407122F47C5203EA10136FF31F3089
:101D1000B1F5407F08BF1A43002548F81C2CD8F8BD
:101D200044100843C8F84400FFF785BC00000000D9
:101D300044F2A041C5F602010A68104308607047EA
:101D40002DE9F04381B0002800F0208142F2000923
:101D50000446C5F20029D9F8000000F00F008142C6
:101D60000DD9D9F8000020F00F000843C9F8000091
:101D7000D9F8000000F00F00884240F00781206889
:101D800044F218464207C5F602060AD522693368AE
:101D900003F070039A4204D9336823F070031A43A6
:101DA000326002070AD56269736803F070039A42D1
:101DB00004D9736823F070031A437260C2060AD50F
:101DC000A269736803F4E0639A4204D9736823F448
:101DD000E0631A43726082060AD5E269B36803F0D1
:101DE00070039A4204D9B36823F070031A43B260B7
:101DF00010F002020AD0E368376807F00F07BB4211
:101E000004D9376827F00F073B433360C3073FD03F
:101E1000306820F47062D4E901031A43326001286B
:101E200056F8182C0AD0032804D002280AD19203AD
:101E30000BD4ABE0920108D4A8E000BFD20504D4D3
:101E4000A4E000BF520740F1A180884656F8081C64
:101E500021F00701084346F8080CFEF775FF054618
:101E600041F2883756F8080C616800F03800B0EB92
:101E7000C10F09D0FEF768FF401BB842F2D903201A
:101E800001B0BDE8F08300BF2068414600F00202C7
:101E900052B1E268336803F00F039A4204D2336808
:101EA00023F00F031A433260D9F8002002F00F022A
:101EB00091420CD2D9F8002022F00F020A43C9F84F
:101EC0000020D9F8002002F00F028A425ED14107BB
:101ED0000AD52169326802F07002914204D2326858
:101EE00022F070021143316001070AD561697268FE
:101EF00002F07002914204D2726822F07002114323
:101F00007160C1060AD5A169726802F4E06291426B
:101F100004D2726822F4E0621143716080060AD52F
:101F2000E069B16801F07001884204D2B16821F023
:101F300070010843B06000F0B7F8316843F6B202B0
:101F4000C0F60002C1F30321515C336803F00F03B4
:101F500001F01F01D25C20FA01F102F01F0040F2F3
:101F6000CC02C2F2004221FA00F0106040F2C4003C
:101F700040F2C802C2F20040C2F2004200681160A2
:101F800001B0BDE8F043FEF72BBF00BF012001B058
:101F9000BDE8F0830000000080B500F085F844F251
:101FA000184143F6B203C5F60201C0F600030A6801
:101FB000C2F303229A5C096801F00F0102F01F02CC
:101FC000595C20FA02F201F01F0040F2CC01C2F28B
:101FD000004122FA00F0086040F2C801C2F200415C
:101FE0000A6080BD0000000080B500F05DF844F29A
:101FF000184C43F6B203C5F6020CC0F60003DCF839
:102000000020C2F303229A5CDCF8001001F00F01FB
:1020100002F01F02595CD04040F2CC02C2F20042F2
:1020200001F01F0120FA01F1116040F2C802C2F272
:1020300000421060DCF80400C0F30210185C00F0ED
:102040001F0021FA00F080BD80B500F02DF844F2A9
:10205000184C43F6B203C5F6020CC0F60003DCF8D8
:102060000020C2F303229A5CDCF8001001F00F019B
:1020700002F01F02595CD04040F2CC02C2F2004292
:1020800001F01F0120FA01F1116040F2C802C2F212
:1020900000421060DCF80400C0F30220185C00F07D
:1020A0001F0021FA00F080BD44F20041C5F6020194
:1020B0000869C0F3C200032816D002280ED00028F9
:1020C00032D10868800649F20000C0F2D03058BF13
:1020D00070470968C1F3C101C840704741F2002050
:1020E000C0F27A00704700BF8B6A886AD1F82CC0B2
:1020F0004A6BC0F30510E8B1C2F3CC0203F003034E
:1021000000EE102A9FED2A1AB8EE400A20EE010ACE
:102110009FED281ADFE803F0022110210A689206D9
:102120000ED49FED261A18E040F60010C0F23D00D4
:10213000704700BF002070479FED1F1A0DE000BFE1
:102140000A6849F20003C0F2D033C2F3C10223FA95
:1021500002F201EE102AB8EE411A0A6B9FED183A0E
:102160006FF35F2202EE102A5FEACC7203FE000AD0
:1021700003EE100A086BB8EE422AC0F34620B8EE10
:10218000433A013030EE020AB7EE002A81EE031A1C
:1021900030EE020A21EE000A01EE100AB8EE411AF2
:1021A00080EE010ABCEEC00A10EE100A704700BFB4
:1021B000000000390024744A0024F44A0024744CBE
:1021C000000000000000000070B3F0B581B00446CC
:1021D000007844F20046C007C5F6020626D12078F2
:1021E00080076AD5306910F03801B06A42D01829EA
:1021F00008BF5FEA80703DD0E0683168002800F0D9
:10220000238121F0190108433060FEF79DFD05464A
:10221000306840074AD4FEF797FD401B0228F7D9E3
:10222000032001B0F0BD00BF01207047306900F00D
:102230003801B06A102905D018290BD100F003002D
:10224000022807D130688003C9D560680028C6D14C
:10225000A0E000BF61683068002900F02F81B1F56F
:10226000A02F00F02381B1F5803F40F03D8140F484
:1022700080303FE130684007E06802D5002800F078
:102280008980316821F0190108433060FEF75CFD58
:10229000054600BF3068400708D4FEF755FD401BD7
:1022A00002284FF00300F5D901B0F0BD7068216934
:1022B00020F0FE4040EA016070602078C00618D52A
:1022C000306900F03801B06A082905D018297BD19F
:1022D00000F00300012877D13068C00502D5E0691D
:1022E000802857D1F068216A20F07C5040EA0160D4
:1022F000F0602078000737D4207880064ED420780C
:10230000400779D4656A65B3306900F03800182851
:1023100040F01281012DB16A306B3BD001F0030215
:10232000A36A9A4236D1C1F30511E26A914231D1D2
:102330000146226B6FF35F21013A91422AD1C0F32B
:102340004622616B01398A4224D1C0F30642A16B57
:1023500001398A421ED1C0F30660E16B013988421F
:1023600018D1002001B0F0BD60690028706F59D00D
:1023700040F001007067FEF7E7FC0546706F8007CC
:10238000BAD4FEF7E1FC401B0228F7D9032001B0C4
:10239000F0BD00BF012001B0F0BD00BFA069002862
:1023A000306871D040F480503060FEF7CDFC0546B7
:1023B00030688004A3D4FEF7C7FC401B0228F7D97D
:1023C000032001B0F0BD00BFE0690028306800F0D4
:1023D000A18040F080003060FEF7B6FC054600BFEB
:1023E0003068C0053FF57EAFFEF7AEFC401B02280B
:1023F0004FF00300F4D957E7D6F8000440F480709A
:10240000C6F80004FEF7A0FC054600BFD6F800049D
:10241000C0052BD4FEF798FC401B6428F6D9032096
:1024200001B0F0BD20F001007067FEF78DFC05469D
:10243000706F80077FF560AFFEF786FC401B0228B7
:102440004FF00300F4D92FE721F001003060FEF7D0
:102450007BFC0546306840077FF52FAFFEF774FC24
:10246000401B02284FF00300F4D91DE7A168306F2C
:10247000002900F08B80052900F08080012940F0C0
:102480009D8040F001009FE020F480503060FEF716
:102490005BFC0546306880047FF531AFFEF754FCE5
:1024A000401B02284FF00300F4D9FDE640F48020E1
:1024B0003060306840F480301CE000BF20F4803091
:1024C0003060306820F480203060FEF73DFC054627
:1024D000306880037FF583AEFEF736FC401B64282E
:1024E0004FF00300F4D9DFE620F48030306030682C
:1024F00020F480203060FEF727FC0546306880031A
:102500003FF56DAEFEF720FC401B6428F6D9032092
:1025100001B0F0BD20F080003060FEF715FC0546EC
:102520003068C0057FF5E5AEFEF70EFC401B0228C3
:102530004FF00300F4D9B7E6306820F080703060C7
:10254000FEF702FC022D05460CD100BF3068800169
:102550004CD5FEF7F9FB401B02284FF00300F5D9DC
:10256000A2E600BF306880017FF5FBAEFEF7ECFB12
:10257000401B02284FF00300F4D995E640F0040018
:102580003067306F40F001001EE000BF20F0010016
:102590003067306F20F004003067FEF7D5FB05464A
:1025A00041F28837306F80077FF5ACAEFEF7CCFB89
:1025B000401BB8424FF00300F4D975E620F001004B
:1025C0003067306F20F004003067FEF7BDFB054632
:1025D00041F28837306F80073FF594AEFEF7B4FBC9
:1025E000401BB8424FF00300F4D95DE604F1280720
:1025F000B06A40F2F33188438ECF0843591E40EA57
:1026000002104FF47E426FF35F21B06202EB47206D
:102610004FF4FE0280B2E36B0844A16B02EB014170
:102620004FF0FE4201F4FE0102EB0362084402F0A7
:10263000FE4108443063F06A4FF6F87120F0010063
:10264000F062706BA26C884340EAC2007063F06A6B
:10265000216C20F00C000843F062F06A616C20F0FD
:1026600002000843F062F06A40F48030F062F06AE1
:1026700040F40030F062F06A40F48020F062F06ACA
:1026800040F00100F062306840F080703060FEF78A
:102690005BFB0446306880013FF563AEFEF754FBF8
:1026A000001B02284FF00300F4D9FDE500000000F4
:1026B00040F20441C5F600010A6822F460021043AA
:1026C0000860704700000000411E0020B0EB116F51
:1026D00002D00120704700BF4EF21002F023CEF26C
:1026E000000251604EF62351CEF200010B7007211B
:1026F000906011607047000090F88010012901D1AE
:10270000022070472421C0F8841001680A680B6811
:1027100022F0005223F001030B60002343660A609D
:102720002021C0F8841080F880300020704700001D
:1027300090F88020012A01D10220704770B5242230
:10274000C0F884200268D0F864E0BEF1000FD2F82F
:1027500000C0136823F001031360936823F06063E3
:1027600041EA0301916019D0916843F6DA0E93684B
:10277000C0F6000E5B0F43F6E205C1F34266C0F6F9
:1027800000051EF80340E95C2301B3FBF1F11EF8DC
:102790000630AE5D1B01B3FBF6F301E0012101231E
:1027A000A0F86A102021A0F86830C2F800C0C0F874
:1027B0008410002180F88010002070BD000000000F
:1027C00090F88020012A01D10220704770B52422A0
:1027D000C0F884200268D0F864E0BEF1000FD2F89F
:1027E00000C0136823F001031360936823F0604373
:1027F00041EA0301916019D0916843F6DA0E9368BB
:10280000C0F6000E5B0F43F6E205C1F34266C0F668
:1028100000051EF80340E95C2301B3FBF1F11EF84B
:102820000630AE5D1B01B3FBF6F301E0012101238D
:10283000A0F86A102021A0F86830C2F800C0C0F8E3
:102840008410002180F88010002070BD000000007E
:10285000D0B1B0B582B00446D0F8840028B90020C9
:1028600084F88000204600F05BF82420C4F884003F
:102870002068016821F001010160204600F044FB5E
:1028800020B1012002B0B0BD01207047A06A10B194
:10289000204600F0C9FA2068416821F49041416067
:1028A000816821F02A018160016841F00101016025
:1028B0000020C4F88C00FEF747FA216805460A6834
:1028C00012070ED54FF4001100226FF07E400090E9
:1028D00020462B4600F068FD10B1032002B0B0BDC9
:1028E0002168086840070DD54FF4800100226FF081
:1028F0007E40009020462B4600F056FD10B103208C
:1029000002B0B0BD2020C4F88400C4F888000020C4
:10291000E06684F8800002B0B0BD00000000000056
:1029200010B5B4B0044602A800212F91CDE93211B0
:10293000CDE930110430B021FDF7C6FD44F60001A9
:102940002068C4F20001884202D034B010BD00BF3C
:1029500002A802240294FEF71FFC08B1FDF7E4FE72
:1029600044F2E040C5F60200816841F480218160B4
:10297000816801F4802101910199016841F0080109
:10298000016000682FA900F00800019001984FF441
:102990004070CDE92F040020CDE9310007203390AD
:1029A00040F60040C5F60200FEF7F2F834B010BD64
:1029B00070B110B5044600F00FF894E80F0043F032
:1029C000800303602369194311434160002010BD57
:1029D000012070470000000043F200010068C5F2CA
:1029E0000001884218BF704780B582B00120FFF710
:1029F0009FF944F2E440C5F60200016841F040014D
:102A00000160006800F040000190019802B0BDE84C
:102A10008040704700000000014602680020C9683D
:102A20001160704700000000FEE700000000000099
:102A3000FEE7000000000000FEE7000000000000CC
:102A40007047000000000000F0B581B044F22C4750
:102A5000C5F6020757F8042C02F00302032A03D13B
:102A6000012001B0F0BD00BF054657F82C0C0C4604
:102A700020F0806047F82C0CFEF766F9064600BF90
:102A800057F82C0C000105D5FEF75EF9801B0228D3
:102A9000F6D964E057F8040CEE6895E80E0020F4CF
:102AA0007C30012C40EA0130A2F101016FF35F217B
:102AB0004FF47E4202EB432247F8040C92B24FF0EF
:102AC000FE4302EB01004FF4FE012A6901EB0641CF
:102AD00001F4FE0103EB0262084402F0FE410844E7
:102AE000F8603868696920F0C00040EA0100386089
:102AF0003868A96920F0200040EA01003860386891
:102B00004FF6F87120F0100038603869EA6920EA61
:102B100001004FF4001140EAC2003861386808BF74
:102B20004FF4801140F01000002C386008BF4FF4C3
:102B3000002138680843386057F82C0C40F080605A
:102B400047F82C0CFEF700F9044600BF57F82C0C90
:102B5000000107D4FEF7F8F8001B0328F6D3032082
:102B600001B0F0BD002001B0F0BD00000000000089
:102B7000F0B581B044F22C47C5F6020757F8042C93
:102B800002F00302032A03D1012001B0F0BD00BF0F
:102B9000054657F82C0C0C4620F0805047F82C0CBA
:102BA000FEF7D2F8064600BF57F82C0C800005D57A
:102BB000FEF7CAF8801B0228F6D964E057F8040C27
:102BC000EE6895E80E0020F07C70012C40EA015080
:102BD000A2F101016FF35F214FF47E4202EB432229
:102BE00047F8040C92B24FF0FE4302EB01004FF4A1
:102BF000FE012A6901EB064101F4FE0103EB0262CA
:102C0000084402F0FE41084478613868696920F49C
:102C1000406040EA010038603868A96920F400701B
:102C200040EA0100386038684FF6F87120F480708F
:102C30003860B869EA6920EA01004FF0807140EA23
:102C4000C200B861386808BF4FF4000140F48070DA
:102C5000002C386008BF4FF48001386808433860A2
:102C600057F82C0C40F0805047F82C0CFEF76CF80D
:102C7000044600BF57F82C0C800007D4FEF764F818
:102C8000001B0328F6D3032001B0F0BD002001B0E3
:102C9000F0BD0000000000007047000000000000D0
:102CA000FEF75AB800000000B0B59CB044F6180416
:102CB00009A84C21C5F60204FDF706FC02200025F8
:102CC000CDE90755CDE90555CDE90355CDE90155C8
:102CD000FEF7FEF80095206820F440402060206850
:102CE00000F44040009000982068800409D42068D7
:102CF00080045CBF20685FEA804002D420688004C2
:102D0000F2D5212009904FF4A0200A9001200F90C5
:102D100040F213130221CDE9153009A80422CDE9B0
:102D2000121114920024CDE917211992CDE91A4409
:102D3000FFF74AFA20B1EFF3108072B6FEE700BF4A
:102D40003F20019003204FF48061CDE90204082068
:102D500004904020CDE90500CDE9071001A803212A
:102D6000FEF7EEFF20B1EFF3108072B6FEE700BF72
:102D70001CB0B0BD000000004EF6885042F2000CBE
:102D8000CEF20000C5F2002C026842F4700202602C
:102D9000DCF8000000F00F00062806D8DCF8000080
:102DA000072262F30300CCF8000044F200404EF624
:102DB0007F51C5F60200CEF6F621026842F001020C
:102DC000026000220261036819400160DCF8001013
:102DD000090706D5DCF80010072363F30301CCF8DC
:102DE000001040F200218261C261C0F20221026241
:102DF00081620021C0F2FF11C16240F28021C0F265
:102E00000111016342638163C2630164426401682A
:102E100021F480210160026644F20000C5F2002026
:102E200043F2D20101607047816ACA070CD18A0758
:102E300015D44A071ED40A0727D4CA0630D48A06F6
:102E400039D44A0642D454E00268D0F82CC0536802
:102E500023F4003343EA0C0353608A07E9D5026880
:102E6000D0F830C0536823F4803343EA0C03536036
:102E70004A07E0D50268D0F834C0536823F48023B1
:102E800043EA0C0353600A07D7D50268D0F838C06C
:102E9000536823F4004343EA0C035360CA06CED5BB
:102EA0000268D0F83CC0936823F4805343EA0C03D3
:102EB00093608A06C5D50268D0F840C0936823F4B1
:102EC000005343EA0C0393604A0612D50268D0F817
:102ED00044C0BCF5801F536823F4801343EA0C03FD
:102EE000536006D1536823F4C00C836C43EA0C038F
:102EF0005360090658BF70470168C06C4A6822F4E5
:102F00000022104348607047F0B583B00446006863
:102F100046F6F31640F6004E22696569D4E90213BD
:102F20000A43E7690168CCF6FF762A433140114332
:102F3000C5F6000E394301604168704521F44051E7
:102F400044F2544C41EA03014160A2694FF2FF434D
:102F50001CBF216A0A438168C1F2FF131940C5F6FC
:102F6000020C1143816047F6FF32C16AC4F20002CD
:102F700021F00F01656A90424FF0800341EA05019C
:102F8000C16219DD41F2FF71C4F2010188422DDCFA
:102F900047F60041C4F20001884257D041F20001D7
:102FA000C4F20101884239D041F20041C4F201016A
:102FB000884233D056E000BF44F6FF31C4F200012E
:102FC000884237DD44F60041C4F2000188423DD01A
:102FD00045F20001C4F20001884237D047F60001F3
:102FE000C4F20001884231D03CE000BF41F600014C
:102FF000C4F20101884211D041F60041C4F201013E
:1030000088420BD070452DD1DCF8041001F0070286
:10301000062A27D20FF2883122E000BFDCF8001028
:10302000C1F3C202062A1DD243F6AC01C0F600016C
:1030300016E000BF44F20041C4F20001884205D00E
:1030400044F60001C4F2000188420BD1DCF8001004
:1030500001F00702062A05D243F6A601C0F60001D8
:103060008B181B78704540F60010C0F23D0000F050
:103070005380B7F5004F40F07B80402B4FF00101AB
:1030800000F28581DFE813F042002E018301830105
:10309000360183018301830142018301830183019E
:1030A00083018301830183010A0183018301830179
:1030B00083018301830183018301830183018301F0
:1030C000830183018301830148018301830183011B
:1030D00083018301830183018301830183018301D0
:1030E00083018301830183018301830183018301C0
:1030F00083018301830183018301830183018301B0
:103100008301830183018301260100BFFEF76CFF69
:10311000002840F0008136E19A1E01211E2A00F2AB
:103120007580DFE812F01F0034018700340134019C
:1031300034018D003401340134013401340134018F
:103140003401790034013401340134013401340193
:1031500034013401340134013401340134013401C7
:1031600034019500FDF7DCFE002840F070800AE194
:10317000402B4FF0010100F20A81DFE813F041001B
:10318000B70008010801C100080108010801E900B1
:1031900008010801080108010801080108019D0053
:1031A00008010801080108010801080108010801D7
:1031B0000801080108010801080108010801EF00E1
:1031C00008010801080108010801080108010801B7
:1031D00008010801080108010801080108010801A7
:1031E0000801080108010801080108010801080197
:1031F0000801080108010801080108010801AF00E1
:10320000FEF7F2FE002840F0A880BCE0402B40F022
:10321000BE804FF400401BE05CF8540C800649F27D
:103220000000C0F2D03013D55CF8541CC1F3C101CA
:10323000C8400DE06846FDF787FE019838B9A2E066
:103240006846FDF715FF0198002800F09C80656A2C
:1032500043F6C2016268C0F6000131F81510B0FBF8
:10326000F1F002EB420188424FF00101C0F08F8083
:103270001303984200F28B80010E0023000210EB32
:10328000520041F10001FDF7A7F84FF60052A0F5FA
:103290004071C0F20F02914273D377E05CF8540C96
:1032A000800649F20000C0F2D03035D55CF8541CDD
:1032B000C1F3C101C8402FE05CF8540C800649F20C
:1032C0000000C0F2D03049D55CF8541CC1F3C101F4
:1032D000C84043E04FF400401EE000BF4FF4004000
:1032E0003CE000BFFEF7B0FEA8B94CE0FEF7ACFE34
:1032F00098BB48E06846FDF727FE019858B942E0C0
:103300006846FDF721FE019838BB3CE06846FDF7B2
:10331000AFFE0198B8B3656A43F6C201C0F600017A
:1033200031F81510B0FBF1F061684A0802EB40007B
:103330004FF6EF72B0FBF1F0A0F11001914225D8E9
:103340004FF6F0710140C0F34200084419E000BF9D
:103350006846FDF78DFE0198A8B1656A43F6C20183
:103360006268C0F6000131F81510B0FBF1F000EB17
:103370005200B0FBF2F0A0F110014FF6EF72914253
:1033800004D82168C860002101E000BF01214FF08E
:103390000110A0660020C4E91C00084603B0F0BD7F
:1033A00002040810204000002DE9F04104460068A6
:1033B0000D46C7693940491BB1FA81F149098A4272
:1033C00040F0A380DDF81880B8F1000F28D0164631
:1033D00018F1010140F08280C1692940491BB1FA0E
:1033E00081F149098E4240F09080C1692940491B12
:1033F000B1FA81F149098E4201BFC1692940491BD7
:10340000B1FA81F104BF49098E4240F07E80C16962
:103410002940491BB1FA81F149098E42DCD074E0A0
:10342000FDF792FC206850E8000F216820F4D0706E
:1034300041E80002F2B1206850E8000F216820F452
:10344000D07041E80002002A1FBF206850E8000F3A
:10345000216820F4D0701CBF41E80002002A09D086
:10346000206850E8000F216820F4D07041E8000285
:10347000002AD7D1206850E8020F216820F001000F
:1034800041E80202002A1FBF206850E8020F2168AD
:1034900020F001001CBF41E80202002A12D020687F
:1034A00050E8020F216820F0010041E802024AB111
:1034B000206850E8020F216820F0010041E8020274
:1034C000002AD7D188208421202262502250002057
:1034D00084F880000320BDE8F08100BF1F4600BFD4
:1034E000FDF732FCC01B40459CD8206801684907A5
:1034F00044BFC1695FEA01510AD4C0692840401B3A
:10350000B0FA80F040098642EAD00020BDE8F081A0
:103510004FF400610162206850E8000F216820F438
:10352000D07041E80002F2B1206850E8000F216835
:1035300020F4D07041E80002002A1FBF206850E844
:10354000000F216820F4D0701CBF41E80002002A5F
:1035500009D0206850E8000F216820F4D07041E8BD
:103560000002002AD7D1206850E8020F216820F01D
:10357000010041E80202F2B1206850E8020F216820
:1035800020F0010041E80202002A1FBF206850E835
:10359000020F216820F001001CBF41E80202002A4E
:1035A00009D0206850E8020F216820F0010041E8AE
:1035B0000202002AD7D12020C4F884008C20882160
:1035C00082E7000000000000FEE7000000000000AD
:1035D00086B040F20048C5F60208FDF7CDFBFFF7C4
:1035E00063FB44F2E0400024C5F602000594CDE9F7
:1035F0000344CDE901440168002241F00401016067
:10360000016844F2010A01F0040100910099016887
:1036100041F080010160016801F080010091009992
:10362000016841F001010160016801F001010091B0
:103630000099016841F002010160016801F0020196
:1036400000910099016841F008010160016801F0F2
:10365000080100910099016841F040010160016892
:1036600001F0400100910099016841F010010160F2
:10367000006844F2010100F01000009000984046FC
:10368000FDF75AFB08F500674FF4806100223846C9
:103690004FF48069FDF750FB08F5406502210022D8
:1036A00028464FF0020BFDF747FB01AE4FF40050E8
:1036B000CDE9010408F5806031460394FDF768FA0E
:1036C00040463146CDF804A04FF0010ACDE902A4EE
:1036D0000494FDF75DFA38463146CDE9019ACDE90B
:1036E0000344FDF755FA802001904FF488103146CD
:1036F000CDE9020408F5A050FDF74AFAA8F5806765
:103700004FF40070CDE90104384631460394FDF7CB
:103710003FFA0A20059038463146CDE9019BCDE9B4
:103720000344FDF735FA2846314644F60006CDE954
:1037300001BACDE90344C4F20006FDF729FA40F2CC
:10374000301548F20000C2F20045C0F2E10006F573
:103750000E3140F20002286040F28010C2F20040B8
:10376000AC80C2F20042C0E9001540F2600180F86E
:1037700008A0C2F20041C0E9031240F2F4514161D5
:10378000FCF7EEFF20B1EFF3108072B6FEE700BF4A
:1037900005F120003021FCF797FE2120E8614FF46D
:1037A0004030286340F208204FF4E131C2F200407B
:1037B0000660C0E90114C0E903440C21C0E9051406
:1037C000C0E90744C0E90944FFF742F820B1EFF32C
:1037D000108072B6FEE700BF40F208200021C2F25E
:1037E0000040FEF7EDFF28B1EFF3108072B600BF86
:1037F000FEE700BF40F208200021C2F20040FEF7C1
:1038000097FF28B1EFF3108072B600BFFEE700BF4C
:1038100040F20820C2F20040FEF76EFF20B1EFF345
:10382000108072B6FEE700BF284643F20001C5F2E1
:10383000000140F8081F4FF4C051416050218160E1
:103840007F21C16000210161FFF7B2F820B1EFF3E1
:10385000108072B6FEE700BF4FF4FA70FCF76CFF01
:10386000012101224046FDF767FA05F108046FF0D7
:10387000010600BF1420FCF75FFFA8688168C90734
:1038800018BF86602046FFF7C7F8F3E7F1EE100A8D
:103890004FF6FF71C0F2C03120EA010040F04070E5
:1038A000E1EE100A704700040810204001040810DF
:1038B0002040000000000102030401020304060787
:1038C0000809010002000400060008000A000C00BC
:1038D00010002000400080000001010101030701E9
:1038E000000008040204080101010000103900086A
:1038F00000000024D000000030030008E039000878
:10390000D0000024D0070000500300080000000091
:1039100000000000000000000000000000000000A7
:103920000000000000000000000000000000000097
:103930000000000000000000000000000000000087
:103940000000000000000000000000000000000077
:103950000000000000000000000000000000000067
:103960000000000000000000000000000000000057
:103970000000000000000000000000000000000047
:103980000000000000000000000000000000000037
:103990000000000000000000000000000000000027
:1039A0000000000000000000000000000000000017
:1039B0000000000000000000000000000000000007
:1039C00000000000000000000000000000000000F7
:1039D00001000000100000000090D0030090D00310
:04000005080002CD20
:00000001FF
